:020000040000fa
:080000000001040000000000f3
:020000040000fa
:10020000afeb21000e7f22000e01880000000000ed
:100210000c000700600a2500010020001100070003
:10022000000020000000e000020032000000020098
:10023000000000008a230200000000000040da00f5
:100240000000fe004440a900e00120000000e000a2
:100250000300320000002000a00188004440a800f4
:100260000000060091018800800078000000eb008b
:1002700015003700e280400032a0b4009101ba00be
:10028000e280400032a0b4009102ba00e280400057
:1002900032a0b4000002eb00472bde00f507b200ed
:1002a000602ce10004003a000059eb008301e900f2
:1002b000fdff3e00040037006128e100010032002c
:1002c0000082eb00040007001101ba000200e00008
:1002d000e8ff3a00000006003159ba008301e90046
:1002e0000c0032002159ba008301e90008003200f5
:1002f0000400e00003003a00e280400032a0b400b5
:10030000f5ff370011d9ba008301e900faff3a007e
:100310008100e800e180400032a0b4000000060047
:100320009c4b0400000000000832040000000000a4
:10033000a8280400000000009e2d0400000000001a
:10034000f2310400000000002c4504000000000011
:100350005261040000000000d861040000000000a9
:100360000040da000000fe0003f0a200889fbe00fb
:100370008a9fbe008c1f7800360207003d023300c2
:100380006450e1004f0032006420e100520032006e
:1003900003826c0007003b000905d0000306d00073
:1003a000820f54000c065d0002003900020032008a
:1003b00089017800030678008582550004003d001d
:1003c0000003fd008103fd008502ea008b854200e9
:1003d000840f720002003b0060001000e0801800f3
:1003e0006011b8000005eb007a28e1000a0039002e
:1003f00006007800c75ddd00f707b2008780750052
:100400002d003700828171000a01780061056000cb
:100410008180d1000080d3008502e900f9ff3b0014
:10042000060440008784480002003b00600414007a
:10043000e0841c000988a300070032008a81710053
:1004400082817100610164008904d1000884d300b5
:100450008b05e800170037000978a30013003a0065
:100460000b00e000130034008b05e9000804440091
:1004700089844c000a4474000978a3000d003a00f6
:100480000b00e000070034008b05e900080444007d
:1004900089844c0001003a000b0020000978a30079
:1004a000f7ff32000001eb0002003700828171008b
:1004b0000a017800ac0107000cf0a70001f0a000d1
:1004c000f50137006420e10002003a00838f6c00e0
:1004d000f50133000801be000200be00ee01370046
:1004e000889fbe008a9fbe008c1f7800d90107003c
:1004f0001002200002003b00a0b98800dd01370097
:100500008a0062006408e10002003a00a0b9880095
:10051000e50137006108e100fcff32000800be0081
:10052000030478007200070001f0a1000900070031
:1005300008f0a600040037000001be00910424006a
:10054000b0fd200088ff070009f0a70001f0a2001d
:10055000d1013700889fbe008a9fbe008c9fbe00dd
:100560000004be00a60107000800be00890678004e
:100570006420e10008003900040032000160a0009e
:1005800012022000a2b988005300370091fc23001a
:10059000b0fd20004e0037000006eb0009f0a1007e
:1005a00003f82300020020000800be00030107003a
:1005b0000600340001f82300000020000801be00fe
:1005c0004b0007000004be002c0020000800be0005
:1005d00093e82300320a2300f800070012003400d9
:1005e0000801be00d1fd2300703d2b005fff070016
:1005f0000005be00b3f32300f27a26000800be0017
:10060000ce01070003f823000200200056ff070078
:100610000801be0055ff07000a01be0034000700b4
:100620000004be000c06e8000800be0001f0a100b6
:100630000200200003982300e00007000800be002d
:10064000160035000801be00bc0107000005be0011
:1006500032cd2c0043fb230044ff0700809fbe00e7
:100660001269280003d52b000a00be00b301070061
:10067000620f210013ef2b003cff07000a01be00b0
:10068000ae0107004f01be00190007000801be00bf
:10069000aa0107000801be0034ff07000c00e000bb
:1006a0000b0032000c10a70001f0a200b2fd2000e8
:1006b00093fc23006260e1000400320022a92000c4
:1006c00063f023000c10a70063f8230027ff070046
:1006d0000df0a70001f0a2004f06be004f05be00be
:1006e0004f04be00000006000081eb00aa023700a4
:1006f000889fbe008a9fbe008c1f780055010700ae
:100700005c01330003866c006450e1002e0032006f
:100710006420e100330032006150e1002f0032001c
:100720006120e1003100320085855500eb07b00003
:1007300009002000080420000500370008044400d8
:1007400089844c000a0031000603430087834b0074
:100750000001530081815b00f8ff33000203be00fb
:100760000800a0000804440089844c00f6ff39000a
:10077000c639dd0083017300010032001300200040
:100780008904d1000884d3000998a3000500320031
:100790000800a7000300a0008904d1000884d3004a
:1007a0008b05e8008904d1000884d3000001eb0028
:1007b0000281d200ec00070001f0a1000cf0a700bc
:1007c00001f0a000340137006420e100360132005e
:1007d0000801be000200be00f7ff37006120e10003
:1007e000310132006000b800f3ff37000000200044
:1007f00001f82700f0ff3700839f68000100e00048
:1008000002003d0060001000e08018000300e000de
:1008100002003d0060011100e0811900fc020700a8
:100820004f00e00002003b0060001000e080180074
:1008300000000600889fbe008a9fbe008c9fbe00fd
:100840000004be00ee0007000800be006420e100c6
:1008500048003e005500320072212700132b24006f
:100860005800070047003c000800be00c2ec28000a
:10087000e32c2c0051000700470035000800be00a3
:1008800001f0a10002002000033823004b00070004
:10089000430035000800be00b2a32a0083fb2300fa
:1008a000260107000200200003f0230001f0a7004a
:1008b00003f0a000adfe0700440007000005be00e5
:1008c0007e00070001f0a2000006be000200280022
:1008d00013f32300190107000801be00a3fe07005f
:1008e000809fbe000c00be0032082800e3952b005c
:1008f000120107004f01be009cfe07000006be006b
:100900000001be000d010700809fbe00424125008e
:1009100083b82300090107000200200003e8230038
:1009200092fe07000c01be00040107000006be0095
:100930004f00be00f2f92b00c3d42300ff000700d4
:100940000200200003f0230088fe07000c01be0017
:1009500085fe07000001be000c00be0064ff07001a
:100960000200200003f0230080fe07006101450023
:10097000d00007004f06be004f05be004f04be006a
:100980000000060001f827000000200022022000dd
:10099000a2b98800f7ff37006000b800fbff3700fe
:1009a00001f8230000002000f2ff370009f8a3003f
:1009b000f0ff32006000b800eeff370014002000a6
:1009c000d7023700f4ff2f00d50237000001be0028
:1009d0008b0007000470a70003f0a1006509b100b7
:1009e000160032000d0035006828e10006003500d1
:1009f000f0ff2f00f1ff27000300e00013003b0091
:100a0000010028000000050000004000818048002f
:100a10008502e900fcff3a0008003700f88f420029
:100a200002003c008000eb00000005008100d100c6
:100a30000080d3008502e800fcff3a000300e000dc
:100a400002003b0060001000e0801800000006007b
:100a50000001be006a0007000470a70003f0a100b7
:100a600003f8a30013003a006509b100100032003a
:100a7000090035006928e100020035000100280066
:100a80000000050000004000818048008502e90068
:100a9000fcff3a0000000600f88f42000500350018
:100aa0008100d1000080d3008502e800fcff3a00fd
:100ab000000006008000eb0000000500889fbe00db
:100ac0008a9fbe00010578000100e00004003500a7
:100ad00008003c000000e000200032000500370064
:100ae00060001000e080180002003b0001f02c00c4
:100af0001a0037000004be006011b8006b09200026
:100b00000982cf00020039000882cf000441b00002
:100b1000694252000e00320008003b0082817100e1
:100b2000610164008904d1000884d3008b05e800ca
:100b30000442e800f9ff3a000500370008044400c9
:100b400089844c008b05e9000442e900fbff3a0070
:100b5000050007000af0a70001f0a0004f05be0045
:100b60004f04be0000000600810020006180550097
:100b70000b003d000b00200061fe2f000100e10092
:100b80001d00340082817100610164008904d1007c
:100b90000884d3000000e800faff3a00710020004a
:100ba0006100640003007000020060000900320070
:100bb00061044400e0844c000988a500050032006f
:100bc0008b05e8006808e10002003a008904d100c2
:100bd0000884d300f20f20000258e10005003d0018
:100be000c75ddd00f907b200898075000800780054
:100bf000000006000bf827008b00780000000500bd
:100c0000c70ade00f107b200f50fb200080032009b
:100c1000e1cf4200020032000170a0002400050074
:100c2000810f700001003200040805004400050037
:100c3000810f700002003a00140005008502e900ef
:100c40000000400081c04800fcff3b000170a00094
:100c5000240005000004be00e9ff07000003be00f9
:100c60000405be000200be00e5ff0700844f7500ca
:100c7000000006000200be006450e10005003600de
:100c80006420e100020036000968a30001003a0078
:100c90000800be000160a0004f0678004f05be00ae
:100ca0004f04be0000000600f0ff2f00f1ff2700f8
:100cb000f9ff37000003be00d1ff07006220e1000a
:100cc000020032000600be0000000600850241005e
:100cd000e30f20000328e10005003c00a3fe2f00e5
:100ce0000328e10007003d00050020000100370057
:100cf000f50f200020022000a0b988006000b80095
:100d000008003700130020008381520005003d00d9
:100d10008100d1000080d3008301e800fcff3a008d
:100d200005002000c72add00f107b20085807000b1
:100d300007f0a70001f0a00000000600889fbe0099
:100d40008a9fbe008c1f7800c2ff0700c9ff3300d6
:100d500003866c006450e100240032006420e1004e
:100d6000270032006150e100220032006120e100e2
:100d7000210032008b854200eb07b1000134b8003e
:100d8000003ab8000804420089844a00013ab800d9
:100d90000030b8008880400009014a000400330098
:100da0000000400081804800020149008b05e900f5
:100db000c909dd008301700001003200130020002a
:100dc000c814de004814dd004709de001200b2003e
:100dd000c808de000884700063ff070001f0a1006e
:100de0000cf0a70001f0a000abff37006120e1008c
:100df000adff32000801be000200be00f7ff370061
:100e00006150e100fcff3a00a7ff37000c00fa0038
:100e1000889fbe008a9fbe008c9fbe008dff07008a
:100e20000206be00840578000200be000200200019
:100e30009401070005003a008b02b3001200200065
:100e40009001070001003a00f8856d000c01be001a
:100e5000c60007000800be009b0032000b08a3007c
:100e60009e003a000df0a7000be0a00009f0a700db
:100e70000bf0a00009f0a1000801be00bb000700b4
:100e80000bf0a6009500320001003c000bd0a00042
:100e90008acf7500b20033006000b8006250e100f4
:100ea00099003900a1003e000b28a300a2003a00df
:100eb0000bf8a300060032000b58a300a700320075
:100ec0000801be00a90007000800be00940032001f
:100ed0000800be005e0107000004be0005057800a2
:100ee0000bf0a7000b30a6000bf0a1005b079800e9
:100ef000324f200053f32300b0fe070005003d00f1
:100f00000800be00120020006aff07000004be00b7
:100f10000a05e9004a0798006150b900e7fe07009a
:100f2000008fbe000c01be0084ff0700a7fe070073
:100f3000300798000100e00002003d006000100052
:100f4000e0801800f2ff2700820f5000e08f580069
:100f500064003e000c00be009cfe070020079800c5
:100f6000f2072000820f5000e08f580005003c007f
:100f700012f82f00f3ff2f00820f5000838f5800cc
:100f800009003d000a00e0000300320001003c00bf
:100f90000201ea00020578006000b800200798000e
:100fa0003a079800190037003e0090006100b90030
:100fb000c2fe0700809fbe000c00be004109dd009c
:100fc0004811de007208b1002e0107000005be00c6
:100fd0001e01be0059ff07004f01be00e2fc0700e2
:100fe000809fbe000c00be000a01be00defc0700b0
:100ff0001e01be0051ff07004f01be00dbfc0700d1
:101000008221270013f323004cff07000005be00d8
:101010002e0090006100b900a8fe070001f0a200b8
:101020000c01be00d1fc07000006be000800be0097
:10103000a70107000c01be0040ff07000a01be0027
:10104000cafc0700809fbe004a0007002e059000e2
:101050000af0a7000a05ea00050037000800be00f4
:101060000801be0035ff07000004be000c00be00f2
:101070000801be000a00a70030ff07000006be00fe
:101080000a05d100f5ff3a005e01900002e0a600db
:10109000030037000001be003600070094fd070082
:1010a0000004be004f00be00e2fd07000801be00c4
:1010b00022ff07003e019000fefe0700de059000c3
:1010c0000bf0a70001f0a2004f06be004f05be00c6
:1010d0004f04be000080fa00000006002500070053
:1010e000f9ff3700270007006000b8000bd0a70009
:1010f0000bc0a0000be0a7000bc0a2000bc0a70014
:1011000001f82700f0ff37000df8a30002003200bd
:101110001e000700190007000bf8a300eaff3200c9
:101120000b30a70001f0a200e7ff37000df8a30085
:10113000f9ff3a00f7ff37000801be000b00070077
:10114000e6ff320001003c000df0a2006000b80094
:101150000df0a70009000700dbff37000b000700b8
:10116000f1ff2700f0ff2f00d7ff37000100070035
:1011700012fe370001f823000000050001f82700e7
:1011800000000500200220000100370010022000ae
:10119000a0b9880000000600889fbe008a9fbe009c
:1011a0008c9fbe00820578000004be0094fe0700fc
:1011b0000800be006420e1000700390002003a0088
:1011c000f1ff2700f0ff2f000160a00012022000b5
:1011d000a2b98800550037006120e10003003a0001
:1011e0000b00a70001f823005000370001f0a10018
:1011f0000200210093642400f0fd07000800be00f7
:1012000004003500b2fd2000930c2400df0007002d
:101210000004be000005eb000b00a6004f0dde0031
:1012200001f0a1000004be0032982f0023ea230041
:10123000c2fe07000001eb0003f023000b00a70033
:1012400003f8230049fc0700e0fd07000000a700a9
:101250000a00a20019fe07000b00e00003003200a4
:101260000200200003f023003ffc070001f0a20071
:101270000006be000200200093042400affe070019
:101280000801be0039fc0700809fbe000c00be00b4
:1012900022a22a00d3a72300a8fe07004f01be0008
:1012a00032fc07000004be0001f0a1000200200093
:1012b00003982300c1fd07000800be001900350097
:1012c0000001be009dfe07000006be00b2c5290059
:1012d000e362230099fe070022222b00f3942b00e7
:1012e00022fc07000c01be0094fe0700e2732800f8
:1012f00083c023001dfc07000c01be008ffe070009
:1013000042aa2a00a3e22b0018fc07000c01be0031
:101310008afe07000801be0088fe07000801be0023
:1013200012fc07000a00a70001f0a2004f06be0051
:101330004f05be004f04be0000000600889fbe009f
:101340008a9fbe008c1f78000004be002cfe0700a0
:101350000478a30026003a006120e1002500320055
:1013600009f8a30025003a006420e10021003200c2
:10137000f507b1000508a30002003200000040009c
:10138000818048006044b800031020000200200063
:1013900000004000818048000805440089854c0019
:1013a0000a0541008b8549000a0550008b855800cd
:1013b000030033000a00be0002047400838474003a
:1013c0008301d1000281d300830f7100f0ff3a0046
:1013d0008904d1000884d3006001490082017800ab
:1013e000c1adde00fb07b000dffd07002afe3700bd
:1013f0000960a0000800be0027fe3700120220008e
:10140000a2b98800f0ff2f00f1ff270022fe37006d
:101410006022b800060220000000d0008180d200c7
:101420000482d2008582d2000000a0000202520095
:1014300083825a00030031000202420083824a0084
:101440000000a1000603e900f3ff3a0000000600d7
:101450000003be00eafd07006220e1000200320046
:101460000600be0005000500e507b100f107b20067
:1014700004f023008480700007f0a70001f0a000b2
:1014800024000500889fbe008a9fbe000003be00a6
:10149000dbfd0700850578008281520002002000f4
:1014a0006220e10004003a00f307b10004003500b7
:1014b0007718e100040035000600be001400370074
:1014c0006000b8000f003700f50f2000faff2f0072
:1014d0008502d1000a85d3008301e900fcff3b00af
:1014e0008184620000046500890f7400f2ff3200fd
:1014f0008582ea000a85ea008184620000046500b2
:1015000099fd070007f0a70001f0a0000081eb00a3
:101510000200e0004f05be004f04be0000000600c0
:10152000889fbe008a9fbe00841f7800c9fd070007
:101530004f00780011003300f0ff2f00838f6c0004
:1015400006003b00040565000a00a70008003700fc
:1015500009f0a6001000200008003700820f540098
:10156000838f5c00030039001000200001003e0062
:101570000000200009f0a7000000ea004f05be00af
:101580004f04be000000e000000006000400200040
:1015900000003700889fbe008a9fbe008c1f780025
:1015a0004f26dd00abfd0700b2fd33006120e100f6
:1015b000430032006250e10041003e003e0039002d
:1015c0006420e1003c003200058255000f003b0022
:1015d0000402e80038003a00800f5300818f5b005e
:1015e000350034000800be0003f0a10001f0a600a1
:1015f00003f0a0000cf0a7005cfb0700a6fd37007d
:101600000603430087834b000c4646000005530049
:1016100081855b00020033000a03be000c00a000bd
:101620000402e900f6ff3b0085057800060243004e
:1016300087824b0004003a006000b80009f0a70060
:1016400001f0a00094fd37000002520081825a0090
:101650000704e000040033000603430087834b00c7
:101660008b05e900faff3700090578000604be0083
:101670000203be006011b8003bfd0700e00f5200fe
:10168000e08f5a000700350002003c000c08a30060
:10169000040032000601be0003f0a0000cf0a70019
:1016a00032fb07000a85680001f0a1000af0a700dc
:1016b00001f0a00078fd37000800be0076fd37007d
:1016c000100220000cf0a600a0b9880076fd3700bb
:1016d000889fbe008a9fbe008c9fbe005cff0700f3
:1016e000850478000005be006420e10049003e004a
:1016f0006220e10003003200090035000bf8a3006e
:10170000440032000bf8a300080032001002200051
:10171000a0b98800f0ff2f00f1ff27003d0037003f
:1017200001f82f00000020003a0037003d000700bc
:101730000dfb07000006be000a00be00324f20006d
:1017400053f323009ffc0700060034000c00be008a
:101750003400070004fb07000006be000a00be00bc
:10176000020037008904e9000c00be002d000700cc
:1017700072fd07002b000700fcfa07000001be0005
:101780000c00be00dafb07000005be000001be0031
:101790006afd07000006be00a2f32300430d2c00e3
:1017a000f2fa0700809fbe000c00be00d2e32700c3
:1017b000d3f02b0061fd07004f01be00ccfb0700fa
:1017c0000006be000a01be005cfd07000a01be0063
:1017d000e6fa07000006be006148b900b7fc070042
:1017e0000005be0032082800e3952b0053fd0700da
:1017f0000c01be00ddfa07000006be000a00be00b4
:101800000200280013f323004cfd07000c01be006a
:10181000d6fa07004f06be004f05be004f04be00bb
:101820000000060003f02300020005000004780019
:1018300002000700080078004e070700881f7800a4
:10184000e0cc80000000e000010032000000010058
:1018500028962100080078003d0607006c0444002b
:1018600060982100800f5400faff3a004f0478007e
:1018700000000600800078003004e000feff3a001f
:10188000010050000000e900000006000c00fa0012
:10189000889fbe0000047800cfb09700f0ff2700bb
:1018a000d0bf9f008004eb0099bf9f0088bf9f00be
:1018b000a8bf9f00200c2000b0bf9f007881570078
:1018c000708057005f0007000fb897000948780044
:1018d0000fb8970008045000080078004f04be00bd
:1018e0000080fa0000000600889fbe008a1f780072
:1018f000804078000004e00021003d008040ea00c4
:10190000d0c6b30080cf5000090034008104fb0032
:1019100042062000110009008204d800000178006e
:10192000010078004311dd006a7321001f003700b9
:101930000100fb006373210039003700a200200082
:10194000110009000200d8000001780001007800b1
:101950004311dd00030141004300dd0003004000ae
:101960003002be002003be0042209000d220900032
:10197000f221900062219000290907002e00370013
:10198000d0c6b30080cf5000230034008104fb0098
:1019900042062000110009008204d80000017800ee
:1019a000010078004311dd006a7e21000a01410038
:1019b000a8002000110009000800d8004300dd0045
:1019c0000a00400040229000d02290006023900046
:1019d000f02390000288900092889000b2899000d5
:1019e000228990000e090700801f7800010278000c
:1019f000110009008804d8000102fd004f007800a2
:101a00000402fb004322dd000a0242005403be0030
:101a10004402be00d8ff37000100fb00637e2100b6
:101a2000eacf5000c5ff3c004300dd00030040004a
:101a30005001be004000be004f0578004f04be00bc
:101a4000000006008f03b000889fbe008a9fbe0082
:101a50008c9fbe008e1f7800e0b79f00f1b79f00fb
:101a600082bf9f000000eb00a0b79f00e604370094
:101a70008001eb0050c2b30080cf5000090032005b
:101a80000100fb00efb09700e9050700e10f4000ff
:101a9000dd043200afb097008100e800a1b79f00dd
:101aa000d90437007fb1970092407800d0c2b300cc
:101ab00080cf50000c00320007003c006d40500009
:101ac00080cf50000d0032006b40400080cf5000ae
:101ad00019003a000e00370000c3b30080cf500059
:101ae00015003a000f0037000330a0007fb29700c6
:101af0000402e800f4b79f00eaff37000300a000eb
:101b0000ffb297008502e800f5b79f00e5ff3700b8
:101b10000310a0007fb697000c06e800fcb79f00fa
:101b2000e0ff37000320a0007fb097000000e8002e
:101b3000f0b79f00dbff37000318a300010032005d
:101b40000300a1000338a300010032000320a1001c
:101b50000100fb0002fd2f0002004000e90f5000d1
:101b600010003e008000eb00c1b79f000202780029
:101b70004fb197006a10b900ffb297001501fb0042
:101b80000001410004014100c2b79f005500fb0065
:101b9000f5b79f0004004000e90f50000d003e0023
:101ba000f3ff37000006eb00ccb79f00a0c2b300e4
:101bb00080cf500007003a000fb89700c0007800af
:101bc00080bf9f00c1b79f007fb197000201e8006e
:101bd000f2b79f00e0c2b3007fb29700944f1000ad
:101be00021003a00830678000de0a0008400e800a0
:101bf00064405000914f100004003200f1b79f0084
:101c00008002eb00b5b79f00100037000fbe9700b1
:101c10004c0078008cbf9f00b0b79f00ffb09700ca
:101c20008180e800f1b79f00130037003fb29700b2
:101c30006a20b9000000410003004000b0b79f00d7
:101c4000ffb297008502e800f5b79f007fb69700c6
:101c50001c01fb0003fd2f0003004100e90f5000b1
:101c6000f2ff360004003700830678000dc0a000a4
:101c70000000eb00b0b79f007fb19700b240780042
:101c8000f2b79f00c17f9f00c0c6b30080cf500055
:101c90002700320014003c006840500080cf500004
:101ca0009d00320009003c006c40500080cf500085
:101cb000290032006b40400080cf5000720032009b
:101cc0000104e000560432008e00370060c6b30005
:101cd00080cf50001c0032006340400080cf500095
:101ce00088003a008c00370030c7b30080cf500026
:101cf0001c00320007003c006440500080cf5000c0
:101d0000130032000040e80080cf50007d003a0010
:101d10001100370050c7b30080cf50007d00320063
:101d20006340400080cf500076003a000b0037003f
:101d3000000028000d48a30001003a000001200027
:101d400080867600ccff37000da0a000720037001f
:101d50000d60a000700037000d50a0000d70a000b5
:101d60006d0037008fb997004300780083bf9f0054
:101d7000000478000000e00001003a0068932100b0
:101d80008004eb00010037008104e800890078003e
:101d9000088044001004e000fbff3a003fb29700c7
:101da0000400e00003003200890f520001003100fe
:101db000840478000007eb00cfb29700898f5200af
:101dc00001003600098752004368de00e10660002a
:101dd00019003a000d06780009003700efb09700af
:101de0000002200012050700e10f4000030032004e
:101df0002fb097000000e800a0b79f000c06e80095
:101e00008e0f5600f5ff3a000087eb000a003700fe
:101e1000880078003100fb0001047800efb09700e3
:101e200003050700e10f400003003200afb0970048
:101e30008100e800a1b79f000900e9008004780054
:101e4000e10f4000f2ff3a000006eb000d00e00059
:101e50000a003a00ec033700efb0970000022000c0
:101e6000f3040700e10f4000030032002fb1970098
:101e70000201e800a2b79f000c06e8008e0f560092
:101e8000f5ff3a00e00337008fb997004300780070
:101e900083bf9f00cf80de000101780082017800bf
:101ea0000205be000004be000203be000002be0028
:101eb0004822de00482edd0004027600c47f9f0029
:101ec0000d48a3000a0032000404e00008003200bc
:101ed000e14f420006003200d1fb2f000180470095
:101ee00004487800184098002900200002003700bc
:101ef000d07f9f0019002000d2fb2f0002844700f2
:101f0000a6ff3700c3fb2f00038447001900200001
:101f1000a2ff37000d0cb3000070200000826600a5
:101f2000270232000dc8a300020032006400200026
:101f3000b4b79f000d48a300050032000fba970008
:101f40004401be004400be0084bf9f00040037006f
:101f50008fba97004500be0085bf9f002607070087
:101f6000e0af9f00f1af9f0082b79f0093b79f0043
:101f70006022b8006033b8006fa89700ffa89700f0
:101f80000fb197009fb197006d0607000000e000b9
:101f90000a003d006fa89700ffa897000fb19700b7
:101fa0009fb1970003f0a200e0af9f00f1af9f0048
:101fb00082b79f0093b79f003d00b3000000eb0085
:101fc00080a79f006022b8006033b8006fa8970018
:101fd000ffa897000fb197009fb19700bc060700bc
:101fe0000000e000340032006fa89700ffa89700bf
:101ff0000fb197009fb197000008070003fc2f0066
:1020000003814700830707000fa097000000e90045
:102010006300b900a2002000110009000200d800ee
:102020008000fd0081a79f000100e00002003d004c
:102030000100e90080a79f000fa497000840ea0074
:1020400029fe07006faa9700ffaa97000fb3970019
:102050009fb3970072070700a0af9f00b1af9f002a
:10206000c2af9f00d3af9f006022b80006002000df
:1020700007ff2300320607000000e00002003d00d9
:102080000800e9000b0037006022b80006002000bd
:10209000470224002fa89700bfa897004fa99700d8
:1020a000dfa997002b0607000000e00002003500c2
:1020b0000800e80080a79f003fb29700f80f520089
:1020c00057003c00d0c6b300804f520029003600b4
:1020d0000485fb0042062000110009000285d8009b
:1020e00000017800010478004311dd006b732100ca
:1020f0000b0141006022b8000600200007fe23000b
:102100000288900092889000b28990002289900005
:1021100043070700a9002000809fbe0011000900ae
:102120000984d800000478004f00be004344dd005d
:102130000b04440048229000d822900068239000ad
:10214000f823900036070700801f7800010278000e
:10215000110009000985d8000102fd004f00780038
:102160004322dd000b0242005403be004402be00c5
:102170001f0037000480fb0069732100ea4f520002
:1021800014003600a2002000110009000280d800cf
:1021900000017800010478004311dd0009014100cd
:1021a0006022b8000600200007fe230042209000b5
:1021b000d2209000f22190006221900018070700c1
:1021c0004344dd00090444003802be002803be0079
:1021d000070037004300dd00090040006022b8001e
:1021e0000600200007fe23005001be004000be0094
:1021f0000b0707000002be000203be006fa8970095
:10220000ffa897000fb197009fb197004f050700f7
:10221000e0af9f00f1af9f0082b79f0093b79f0090
:102220000fa49700e90f540015003c006022b8008d
:102230006033b8006fa89700ffa897000fb1970010
:102240009fb19700220607000000e0003200320034
:102250006fa89700ffa897000fb197009fb1970054
:1022600084060700e00f5000e08f5800e00f59008f
:10227000e08f590028003a00e10f54002600340096
:102280000400200005002e00b6e022001701240003
:102290002fa89700bfa897004fa99700dfa9970024
:1022a000a70507000000e00002003d007300540095
:1022b000010037007200540080a79f000fc09700f4
:1022c00089fd0700a0af9f00b1af9f00c2af9f0084
:1022d000d3af9f000002be000203be006fa89700ac
:1022e000ffa897000fb197009fb197009e050700c8
:1022f000600607000205be000004be006000b800d2
:102300006011b800a0a79f00b1a79f00c2a79f00bf
:10231000d3a79f002e0037006fa89700ffa8970053
:102320000fb197009fb19700520607000205be004b
:102330000004be00e00f5000e08f5800e00f59008d
:10234000e08f5900020035007b06070013003700bc
:1023500010002000010020006011b800080060009b
:10236000898060000a0161008b8161008b03d100cc
:102370000a83d3008982d3000882d3000000720050
:102380008180720002017300838173006a06070076
:102390000002be000203be00ec0407000002be0003
:1023a0000203be006fa89700ffa897000fb1970027
:1023b0009fb197000f070700a0a79f00b1a79f003c
:1023c000c2a79f00d3a79f000000eb0080a79f003b
:1023d00014c0b300658921000b0037000400fb0026
:1023e0004300dd00050040005001be004000be007b
:1023f0000040e10001c8e10002d0e10003d8e100a3
:10240000030039000442e800f44f5200f3ff3a00a1
:10241000c47f9f000400fb00bfb097000080400015
:102420008fa09700010040004fb1970000075100b6
:10243000bfb197000300e000010032000e07e90081
:1024400063806600010032000e07e9000d28a3003a
:1024500026003200e18066000d18a3000c00320057
:10246000d00220000100e00001003a000080e900f5
:10247000efb097006e030700e10f40001800320034
:102480002fb297000402e800a4b79f0014003700a1
:102490000100e00012003200efb0970000022000bf
:1024a00063030700e10f40000d003200afb2970058
:1024b0008502e800a5b79f0009003700efb097003c
:1024c000000320005a030700e10f40000300320020
:1024d0002fb697000c06e800acb79f000e07e90086
:1024e0000e00e000f5ff3c003d0037000d38a30072
:1024f0000a0032000b003700efb097000002200006
:102500004b030700e10f4000030032002fb097009b
:102510000000e800a0b79f000e07e9000e00e000f1
:10252000f5ff3c00e18066000d18a3000c003200ae
:10253000d00220000100e00001003a000080e90024
:10254000efb097003a030700e10f4000240032008b
:10255000afb097008100e800a1b79f0020003700ce
:102560000100e0001e003200efb0970000022000e2
:102570002f030700e10f4000190032002fb1970030
:102580000201e800a2b79f00150037000000fb0021
:102590004300dd0061892100010040003002be00df
:1025a0002003be000800be000a01be006507070048
:1025b000a4002000050020006033b8006807070071
:1025c0000003b000efb0970019030700e10f4000cf
:1025d00003003200afb197008301e800a3b79f006a
:1025e0004f7a97000440e900c07f9f00e14f400010
:1025f000e6ff3a000b003700efb097000003200021
:102600000b030700e10f400003003200afb2970058
:102610008502e800a5b79f000fa097000000e90021
:1026200080a79f000fa097000000e000f2ff3c0091
:102630003fb6970020c1b300f20f560001003c00e6
:102640006fe09700c07f9f00cf7897000100fb00ec
:102650003fb1970000005100e0a79f000104e00097
:1026600008003200efb09700e0022000f0020700ff
:10267000e10f400003003200afb197008301e80092
:10268000a3b79f004f78970097fc07000002be0099
:102690000203be002fa09700bfa097004fa1970094
:1026a000dfa19700de050700720507001e00370056
:1026b0000000fb004300dd006c8921000c0040009d
:1026c0003002be002003be000800be000a01be00aa
:1026d0001c070700a4002000050020006033b8009c
:1026e0001f0707000003b000efb09700d0020700fb
:1026f000e10f4000030032002fb297000402e8000f
:10270000a4b79f00cf7a97000500fb004300dd00cf
:102710000c0040003002be002003be000800be00d6
:102720000a01be000e0707000205be000004be003d
:102730004f7e97000c40e900c07f9f00e14f4000b2
:10274000dbff3a000006eb0009003700efb097000e
:1027500000032000b6020700e10f40000300320032
:102760002fb097000000e800a0b79f000c06e8001b
:10277000efa09700810f5600f4ff3a000d38a30038
:10278000a10132000e00e0009f0134000006eb00c2
:10279000efb0970000022000a5020700e10f400003
:1027a000030032002fb197000201e800a2b79f009a
:1027b0000c06e8008e0f560093013200f4ff37003c
:1027c0000d007800000cb20028003a000d00e00077
:1027d00005003d008fb997004305be004304be00cd
:1027e00083bf9f00140037000d48a3000b00320088
:1027f0000fba97004400be0084bf9f004f89de00df
:10280000cf91de000002be00020378008203780050
:102810000605be000404be00070037008fba97000b
:102820004500780085bf9f0000047800cfc4de001b
:10283000090578008a057800e00f5400e08f5c00fd
:10284000e00f5d00e08f5d0020003d003d00b30023
:102850006000b8006011b800080450008984580076
:102860000a0559008b855900180037000d00e0005b
:1028700005003d000fbe97004c05be004c04be0095
:102880008cbf9f00110037000d48a30008003200e4
:102890008fba97004500be0085bf9f0004017800f5
:1028a000840178000205be000004be000700370066
:1028b0000fbe97004c0078008cbf9f00000478008a
:1028c000090020000a0020000b0020003fb0970004
:1028d0000000e00007003a00e00f5400e08f5c00c9
:1028e000e00f5d00e08f5d0002003a001100200063
:1028f000b1b79f000d0778000e0cb2000004200055
:10290000800f57002f00320003003c000e00e00053
:10291000070032003f00370000082000800f5700fa
:1029200014003200000c2000800f570039003a00dc
:1029300014c0b300658921000b0037000400fb00c0
:102940004300dd00050040005001be004000be0015
:102950000040e10001c8e10002d0e10003d8e1003d
:102960002b0039000442e800f44f5200f3ff3a0014
:102970002700370000012000010020006011b8008e
:1029800014c0b3000040e10001c8e10002d0e10042
:1029900003d8e1001e003900450020000000d000ef
:1029a0008180d2000281d2008381d2008502e900b9
:1029b000faff3a000442e800f04f5200f1ff3a00fb
:1029c0001300370080002000010020006011b800d3
:1029d00014c0b3000040e10001c8e10002d0e100f2
:1029e00003d8e1000a0039003c0020000000d000bc
:1029f0008180d2000281d2008381d2000c06e900de
:102a0000faff3a000442e800f54f5200f1ff3a00a5
:102a1000c47f9f00cf7897000100fb003fb1970073
:102a2000820f500002003d00c27f9f00040037006b
:102a3000bfb19700808f510001003d00b0b79f00eb
:102a40004fb297000400e00004003200638066008b
:102a5000020032000402e900c4b79f000de8a300a1
:102a60000b003200cfb297003fb697008c8f520018
:102a700003003c000000eb00c0b79f0004003700db
:102a8000cfb097003fb1970082805000c1b79f0040
:102a9000cf7997000300fb000002eb0094a79f0092
:102aa000cfb29700808f52000200340000805200a5
:102ab00090a79f000d28a30037003200e180660038
:102ac0000d18a3000c003200d00220000100e0002d
:102ad00001003a000080e900efb09700d401070040
:102ae000e10f40000e0032002fb697000c06e80000
:102af000acb79f000a0037000100e0000800320078
:102b0000efb0970000022000c9010700e10f40006c
:102b1000030032002fb097000000e800a0b79f002c
:102b20009fa097000100e0000f0032000006eb00bc
:102b3000efb0970000032000bd010700e10f400047
:102b4000030032002fb197000201e800a2b79f00f6
:102b50000c06e8009fa19700830f5600f4ff3a008f
:102b60000002eb0094a79f00bfb29700c328dd00ce
:102b7000e08821008080400091af9f004228dd0066
:102b80006400500080af9f006328b900f0a79f0049
:102b900063065000820037001fa697000c00e0007b
:102ba00011003200688066000f003a0000067800cd
:102bb000efb09700000220009d010700e10f4000e8
:102bc000030032002fb097000000e800a0b79f007c
:102bd0000c06e8009fa09700810f5600f4ff3a0012
:102be0000001eb0092a79f00e18066000d18a30092
:102bf0000c003200d00220000100e00001003a0089
:102c00000080e900efb0970089010700e10f400064
:102c1000d5ff3200afb197008301e800a3b79f0052
:102c2000d1ff37000100e000cfff3200efb0970086
:102c3000000220007e010700e10f4000caff3200c1
:102c40002fb297000402e800a4b79f00c6ff370028
:102c500000042000800f57003000320003003c00c9
:102c60000e00e000070032003d00370000082000a1
:102c7000800f570011003200000c2000800f570019
:102c800037003a001fa897003002be002003be00a4
:102c90000800be000a01be00aa050700a40020002b
:102ca000050020006033b800ad05070004c3b30081
:102cb00004424000c47f9f0029003700d5932100c3
:102cc000d5b79f000d58a30002003a00e094210000
:102cd000d0b79f0014002000050020006033b8002a
:102ce0008fa897008100e900050033000402d0009e
:102cf0008582d2000683d2008783d200f9ff370095
:102d00000800be000a01be008e0507006f006000cb
:102d10005fb1970062407800100037001400200077
:102d2000050020006033b8008c0178008301e900c1
:102d3000050033000402d0008582d2000683d20051
:102d40008783d200f9ff37000800be000a01be00e9
:102d50007c050700674060000043b000c07f9f0013
:102d60004f7a97000400fb00efb097003001070096
:102d7000e10f400003003200afb297008502e80087
:102d8000a5b79f001fa897006800500090af9f0054
:102d90008fa89700e480500081af9f006306560023
:102da000d0ff2f003fb197000090b900ffa197001e
:102db0000080410063005000800f5600a4ff3a00dd
:102dc0000d38a300100032001fa297000400e0009d
:102dd0000d0034000006eb00efb097000002200069
:102de00013010700e10f400003003200afb297006b
:102df0008502e800a5b79f000c06e8001fa0970019
:102e0000800f5600f4ff3a007fb19700b24078007f
:102e1000f2b79f00c17f9f000104e00014fb3a005d
:102e20002fb097004f0778004f06be004f05be0039
:102e30004f04be008f03b10000000600889fbe0053
:102e40008a9fbe008c9fbe0000017800e19821009f
:102e50001100e0000b003a002099210070cc88009e
:102e600050cc880091cc880061cc88002140900033
:102e70000004a000a0409800614090000004a00061
:102e8000e0409800e7004100c208de00c20cdd000f
:102e900064cc80006d9a2100a0eb21000d0550004c
:102ea00022002000811f7800110009000205d800cf
:102eb00000067800cf007800c308dd00e4854000fc
:102ec0008001eb00669a2100e5982100010037009f
:102ed00001027800244090000008a30002003200a4
:102ee0000a003700110a7800940078002140900011
:102ef0000008a300fbff320009014200828f50004e
:102f000002003900840f510046003100940078001f
:102f1000848f5000eeff3e00868f50000200390083
:102f2000858f5000eaff390050cc8000800f52009e
:102f30004f003a00858f50004d003a008301e800b1
:102f4000e18f5100e2ff36008c8f54000400360000
:102f50008a8f5400020031000b0478001200370001
:102f6000614ab8006151b900b0ff2f000100200094
:102f70000200500083805800800f5200818f5a0059
:102f80000200350009047800070037000d80540066
:102f9000d2eb210002004000110009000a80d80095
:102fa0000a80b9000004780008007800c201070018
:102fb00080017800e10f40002d00320050cc8000ed
:102fc0000308780052cc800064004100a2409000c9
:102fd000808f5100020032000104a0000100370080
:102fe0000104a100214198000880410064005000c4
:102ff0008009780050cc8800e2982100020878000f
:1030000051cc8000214090000004a000a040980016
:10301000234090000004a100a04198000202780023
:10302000a7ff370062cc8800828f5000090036006d
:103030009200780080982100a24190000348780017
:1030400031cc8800140978008040eb0060cc80000f
:103050002140980060cc8000000a78002440900055
:103060000004a000204298006400420001003700e4
:103070000000eb004f06be004f05be004f04be002f
:10308000000006006400500060cc8800a040900062
:103090000104a1002140980000000600889fbe00a6
:1030a0008a9fbe0000057800e40150001300100064
:1030b000c285de00234090000008a3000400320017
:1030c00063cc8800234090000004a100a041980038
:1030d0000100780059ff0700000478000000e000bc
:1030e000170032008a0f50001500320060b89700b8
:1030f00008005000c284de00898f550001003600b0
:10310000890578004259dd008a00780008007800bf
:10311000110107008a0f5400090031004248dd0008
:10312000000044008a0f5000050036000a005000dd
:103130000000440032cc800043cc80000288be00f6
:10314000080078004f05be004f04be0000000600d6
:10315000889fbe008a1f780000047800300090002d
:103160006300600024003200080078008d00070032
:103170003805900080ef2f000000650030049800b3
:10318000280090000000e00004003200e804650020
:1031900002003a007f0007002904980048009000d0
:1031a000fc000700e10f400013003200b80090005f
:1031b0000102b20010003a000ac8a3001800320051
:1031c000f0cc80000000e000150032000001780023
:1031d00081047800012a200012289000880f5000f6
:1031e000070032004205b0004905b000818f54004d
:1031f0000b003200f8ff37000080eb0009003700b9
:103200000200780023010700f0cc80000900400094
:103210008000eb00112898000100780001003700c1
:103220000000eb004f0578004f04be0000000600d0
:10323000889fbe000001780001047800b100900072
:103240000118a300400032000198a30003003a00d7
:10325000180090000000e0003b003a000190a00040
:103260003104980082047800f90fb2001800900031
:103270000000e00002003a0028009000000c7800f6
:10328000ea8f540006003a00380090000078a3004e
:1032900003003a0088007800d0002000e4ff070017
:1032a000180290006121b90058009000e8009000d9
:1032b000800f5100818f59000b0032000400e8009c
:1032c000100498001800780009587800000c780065
:1032d00011c0b300a099210001487800ea8f540082
:1032e0000600320019003700880078000940780095
:1032f0005600070080047800140037003800900062
:103300000088a3001100320018019000a80090006e
:1033100048009000a800070098009000810f50001e
:1033200004003200380090000003b300300498001d
:103330008084eb000000eb0010049800280090004f
:10334000000c7800010037008084eb000900780051
:103350004f04be000000060001cd80000100e00027
:10336000030032001100780000cd88000300370010
:1033700020002000d000070080007800e18f40008e
:1033800002003a00906e2600a0b988000100780083
:103390000000060001cd80000108780000cd880003
:1033a00000000600881f78000004780030009000bc
:1033b0000008a30007003200800078000120b2005e
:1033c00004003a0011049800a8009000010c780055
:1033d000170037000018a300190032000098a3005e
:1033e00017003200a80090000100e0001400320035
:1033f000180190000200e000110032004800900027
:103400006d00070098009000810f5000030032000b
:10341000380090000003b300300498000000eb0077
:103420001004980028009000000c780038009000ec
:103430000058a300020032000080eb0001003700ba
:103440000000eb004f047800000006000200fa00c4
:10345000889fbe00a0ff9f0001047800b10090008b
:10346000810478000904b200020032000000fb0071
:10347000360037000118a30005003a000103b3002d
:1034800031049800190498000080eb002f003700e9
:10349000580090000000e00006003a00480090004c
:1034a00012002000e680570043000700190498002e
:1034b00024003700280090000000e00008003a00d7
:1034c0006099210020049800000c78002000200062
:1034d00050049800100498000130a00031049800b6
:1034e00018019000a80090004800900032000700ea
:1034f00028009000000c78000080eb001004980079
:1035000018007800aff8970001587800000c780098
:103510002ff89700ea4f50000a003a003800900058
:103520000088a3000700320018019000a800900056
:10353000480090002000070019049800a80090009f
:10354000010c7800aff897000100fb004f04be00ab
:103550000080fa00000006008001eb000200370046
:1035600061f079008301e800828f5100fcff3a008e
:10357000000006000c02e20004003d000f42ab0018
:10358000020032000f02ab00feff32000040da0002
:10359000feff37000a00fa0011002000b1bf9f00b3
:1035a000c0bf9f006a80570000c0da004fb8970084
:1035b0000080fa00000006000a00fa00800178008e
:1035c000e20f500028003e0010cd8000e10f5000b7
:1035d00008003200e02120000000e0000500320079
:1035e0006421200085212000a62120008001780090
:1035f00004003700c4202000e52020000621200020
:1036000043212000144090000004e0000400350035
:103610008009eb00144090000074a0001042980054
:10362000154090000028a30003003a0015409000c8
:103630000024a000904298008001eb0007003700b2
:10364000154090000008a300fdff320063c0780021
:103650000000fb00000b78008301e800828f51001e
:10366000f7ff3a000800370030002000b0bf9f008d
:10367000c3bf9f00d1bf9f00e2bf9f006a80570079
:1036800000c0da006fb99700020078000080fa00ed
:10369000000006000a00fa0051002000b1bf9f00a0
:1036a000c0bf9f006a80570000c0da005fb8970073
:1036b0000080fa0000000600889fbe0080047800a9
:1036c00020cd80000000e00003003a001000070059
:1036d0000000e0000a00350020cd80000900e00075
:1036e00002003a0000047800060037000004780069
:1036f00009004000060007000000e00001003d0056
:103700000084eb00080078004f04be0000000600b3
:10371000800078000000e00004003a00609a210078
:1037200020cd880001017800060037000081eb0001
:10373000a0eb2100808f500002003e0021cd8800c8
:103740000001eb0002007800000006002800fa00eb
:10375000889fbe008a9fbe008c9fbe00070678002f
:10376000878669000c003b0003047800870478001a
:1037700008f0a10009f0a100840f5000858f5800c7
:10378000860f5900890f5c00030033000cf0a20083
:1037900001003a000cf0a100fe0007006400e10007
:1037a0005f003200780147006408e10061003200e8
:1037b0006c014700748557003200be001201be0044
:1037c0003a04be001a05be001e039000be0a900017
:1037d0008503530006003d000004fd008104fd0048
:1037e0000205fd008305fd008703ea00050378005c
:1037f0000df8a3000400320060041400e0841c00f3
:1038000060051d00e0851d006022b8007d032000da
:103810000d38e1008006eb000b0039004433dd0079
:10382000f300b20083017300390037008482720014
:103830000d027800e10664008b85d1000a85d30073
:103840008984d3000884d3008703e900f7ff3b0095
:1038500008004000898048000a0149008b81490026
:1038600004003b0060001000e080180060011900b7
:10387000e08119000358a300090032008d82720014
:1038800084827200610260008301d1000281d30052
:103890008180d3000080d3000603e8001b003700be
:1038a0000348a30017003a000600e00017003400a8
:1038b0000603e9000d00a3000000480081804800d5
:1038c00002014900838149000348a3000f003a0028
:1038d0000600e000090034000603e9000000400093
:1038e00081804800020149008381490001003a00bb
:1038f0000003eb000348a300f5ff32006022b8008c
:103900000200370084827200618266007500070041
:1039100003f0a1000cf0a70003f0a000b1003700f5
:10392000640147006408e10002003a000df8a300ba
:10393000a9003a003200be001201be00a900370003
:103940008f1fd100f40207008f87e9000000e0001c
:1039500000000600809feb00ef0207008f87e90060
:103960000000e000000006002800fa00889fbe006a
:103970008a9fbe008c9fbe0003866b0085000700f7
:103980006400e100440032006408e1004a003200b3
:103990006100e100460032006108e10049003200a8
:1039a000ec0647006000b8003d02be003d03be00cb
:1039b000f48657006011b8003d04be003d05be000e
:1039c0007d0320000b0037000000a0008d06e900f9
:1039d000130032000402420085824a0006034b00b5
:1039e00087834b00000040008180480002014900ad
:1039f000838149000802520089825a000a035b0051
:103a00008b835b00f0ff3b000802420089824a0082
:103a10000a034b008b834b008d06e900edff3a0053
:103a20008482720086827200f707b2008782720079
:103a300001003200150020001e0490003e0b900093
:103a400006035400e63fb0000368a30007003200fd
:103a50000000a7000500a0008301d1000281d3006f
:103a60008180d3000080d3000603e8008301d100e9
:103a70000281d3008180d3000080d3000002eb00dc
:103a80000482d2001700070003f0a1000cf0a70089
:103a900003f0a00053003700640247006408e1000f
:103aa0004d0032003400be003401be00f6ff370086
:103ab0006108e100480032006011b8006000b80001
:103ac000f1ff370003ff270002002000fbff370053
:103ad000801feb00900207008f87e9000000e000e4
:103ae00000000600180020005700200008045300c2
:103af0000d003d000600200097fc2f000740e1006c
:103b00001e00340084827200610260008301d100d3
:103b10000281d3008180d3000080d3000804e80034
:103b2000f8ff3a00470020006104600005047400bb
:103b3000040464000d00320061004000e080480091
:103b400060014900e081490003b8a5000700320088
:103b50000603e8006538e10004003a008301d10063
:103b60000281d3008180d3000080d300f87f200041
:103b70000830e10003003500080378006000b80059
:103b80006011b8004433dd00f300b200830173001c
:103b900000000600680447000294be000094be00c6
:103ba000fc0447008694be008494be00090078009f
:103bb000a202070008007800a00207009900780020
:103bc000814f70000b003b000800be007b02070025
:103bd0004f00b10003003700f3ff2700f2ff2f0072
:103be0006110b9004f06be004f05be004f04be0075
:103bf0000080fa00000006008103780000f407004e
:103c00000001be006000b8000478a30013003a0071
:103c10006220e10015003e000d0039008301d10053
:103c20000281d3008180d3008301d1000281d300bf
:103c30008180d3008301d1000281d3008180d30031
:103c40000538b000c42add00f300b20083817200a1
:103c500007f0a70003f0a00000000600f3ff270014
:103c6000f2ff2f006110b900fbff370003ff2700b0
:103c7000f7ff37001400fa00889fbe008a9fbe003d
:103c80008c9fbe000004be000205be006800470015
:103c90000a90be000890be00680207000070a700ee
:103ca0000bf0a1000bf8a30020003a009e09900041
:103cb0000e099000fe0090006e0090009e029000a1
:103cc0003443200084825200c6ff32000a003c00c8
:103cd000b4fc2f000428e100140034008301d1005b
:103ce0000281d3008180d3000080d3008502e800e8
:103cf000faff3a00bbff3700b40020000428e100bf
:103d000007003c000000400081804800020149009b
:103d1000838149008502e900faff3a00b1ff3700cc
:103d20000300280002002000010037006011b800e5
:103d30006000b800abff3700889fbe0083047800a6
:103d40000300e0002c00350003003c0000827000fe
:103d5000040271002600320036432000c500200016
:103d60008383cf000a0039000541b1008283cf0070
:103d7000070039000541b1008183cf0004003900fc
:103d80000541b1008083cf00010039000541b10039
:103d900085c353006022b800120032000a003b00c5
:103da00084827200610260008301d1000281d3002d
:103db0008180d3000080d3000603e8008743e80039
:103dc000f7ff3a00070037000000400081804800fc
:103dd00002014900838149000603e9008743e900a5
:103de000f9ff3a003fff070009f0a70003f0a00029
:103df0004f04be000000060060001000e0801800c4
:103e000060011900e0811900d3ff3b00033e2c0044
:103e1000f7ff37008ef5070005097800000006005f
:103e20002800fa00889fbe008a9fbe008c9fbe00bb
:103e300003866b0057ff07000028a30064003a00c8
:103e40000128a30067003a000008a30062003a00be
:103e50000108a30065003a001e009000be08900013
:103e600081064000ed3fb100f4805700ee01900064
:103e7000111ab8008e099000311bb8009e099000fd
:103e8000311cb800511db800f485570046000700ea
:103e9000fe0190003a0007008b85e8003e00070015
:103ea0008e09900040000700ee01900034000700ea
:103eb0008b85e800380007008e099000400007005d
:103ec0009e0990001b18b800890440000a8548002c
:103ed000fe019000340007008b85e80038000700e1
:103ee000ee019000300007008e0990001b18b8000a
:103ef000890440000a8548000a98a30008003a0097
:103f00000402420085824a0006034b0087834b006f
:103f100008044c0089844c000a054d008d06e90018
:103f200084827200850273004c3add0085027200c3
:103f30000100320015002000443ade001400b200f7
:103f40004538de00cb45dd000b007000c540de00cb
:103f5000cb4ddd008b8070004549de00cb55dd0088
:103f60000b017100c551de000d037800ddfe070076
:103f700003f0a1000cf0a70003f0a00019ff370028
:103f80001b18b8008502400006834800e0834b0000
:103f900060044c00070037001b18b80006034000ff
:103fa00087834800faff37001b18b80087034000da
:103fb00008844800e0844c0060054d0000000600c5
:103fc0001b18b8000804400089844800faff370035
:103fd0000108a30000ff3a005800be005801be00cf
:103fe000e3ff37000008a300fbfe3a000904780055
:103ff000f9ff370007f0a200d4fd37001400fa00e3
:10400000889fbe008a9fbe008c9fbe000005be0038
:104010000206be00680047000c90be000a90be0079
:10402000860107006400e1001a00320016003e001d
:104030006100e1001a0032006e049000fe0490005e
:104040000e0b90009e0b90006011b8009e05900032
:104050000b38b100d501200082817100610164003c
:104060008703d1000683d3008984d3000884d3005a
:104070008502e900f8ff3a00bbf207000df0a70047
:1040800001f0a000d7fe3700f1ff2700f0ff2f005e
:10409000d4fe370001f8270000002000f7ff3700aa
:1040a0006000b800f5ff3700881f78000004780032
:1040b0005001be004000be00040040008580480062
:1040c0000601490087814900009cbe000294be00a1
:1040d0000400e1000588e1000690e1000798e10096
:1040e00002003100680044001008e8004f04780026
:1040f00000000600f4874700889fbe008a9fbe002c
:104100008c9fbe008e1f78000205be000004be001a
:10411000d4b79f00e5b79f00f6b79f0087bf9f0009
:104120000000eb00c0b79f00b0b79f00a0b79f0092
:1041300090b79f0080b79f000d042000bfb097008c
:104140004fb09700000140000000e0000f003d006c
:104150004f08de0000007100c0b79f004d0007004f
:1041600001003d00120020005000070001003d004a
:1041700012002000550007006100070066000700dc
:104180000f004000c8ff0700220037004f08de0084
:1041900000067100ccb79f003e00070001003d0003
:1041a000120020004100070001003d001200200025
:1041b00046000700520007000fb297009fb2970019
:1041c0002fb39700bfb397005900070000005200bb
:1041d00081805a0002015b0083815b0080b79f00f1
:1041e00091b79f00a2b79f00b3b79f000007eb00f5
:1041f0004f0007000020e10001a8e10002b0e1004b
:1042000003b8e100010031001e0020000e0056003e
:10421000c0b79f004fb297000400e00007003500d0
:1042200010002000010020006011b8000804700098
:10423000898470000a0571008b8571008d06e90084
:10424000beff3a000400e00003003d00320007001a
:104250000f00400094ff07004fa897000000e00007
:1042600004003a000fb497009fb497002fb5970051
:10427000bfb597000800be000a01be004f077800d6
:104280004f06be004f05be004f04be004f01b100f7
:10429000000006000180400090b79f000001eb0085
:1042a0008fb097000100e0000000060002007000df
:1042b00090b79f000180400080b79f000001eb0095
:1042c000ffa897000100e000000006000200700057
:1042d00080b79f00018040006faa9700cf20de00ca
:1042e00001007000f0af9f00040242000800be0011
:1042f0000a01be004f18de00000272000000060036
:10430000e4af9f000804440089844c000a054d0076
:104310008b854d00000006003fb29700cfb297009a
:104320005fb39700efb3970000fe2f000000060078
:104330003fb09700cfb097005fb19700efb1970003
:1043400000000600881f780018002000881f7800f1
:1043500068ff07008f87e9004f047800000006001f
:10436000801feb0063ff07008f87e9000000060055
:10437000889fbe008a9fbe008c1f78000205be0089
:104380000004be00e00f5000e08f5800e00f59001d
:10439000e08f59000c003d006000b8006011b800cb
:1043a00008045000898458000a0559008b8559007b
:1043b0001c0020001f00070008003d001800070037
:1043c0000006eb00050037000006eb0019000700af
:1043d00002003d000f0007001c0020000800be0086
:1043e0000a01be00d7ff07000203be000002be00a4
:1043f0000c00e00001003200060007000400be00cf
:104400000601be004f0678004f05be004f04be00f7
:10441000000006006000b8006011b800000037001e
:104420000402500085825800060359008783590012
:1044300000000600e00f5200e08f5a00e00f5b0022
:10444000e08f5b0000000600889fbe008a9fbe00d0
:104450008c1f78000205be000004be00e00f500073
:10446000e08f5800e00f5900e08f59000a003d002e
:104470006000b8006011b80008045000898458003a
:104480000a0559008b8559001c0020001800070000
:1044900007003d00050037000006eb001400070090
:1044a00003003d006000b8006011b800150007006f
:1044b0000800be000a01be00a9ff07000203be00fb
:1044c0000002be000c00e000030032006000b800f3
:1044d0006011b8000b0007000400be000601be001a
:1044e0004f0678004f05be004f04be0000000600d6
:1044f000e00f5200e08f5a00e00f5b00e08f5b009e
:10450000000006000402500085825800060359008e
:104510008783590000000600889fbe008a9fbe0066
:104520008c9fbe000404be000605be00809fbe0036
:10453000829fbe002f000700040678000800be001e
:104540000a01be002b000700840678004f03be005e
:104550004f02be008d4f76007fb0970013003300ee
:10456000f0ff2f008b8f6b0006003b000d066600ee
:104570000c00a7000a00370007f0a600100020007a
:104580000a003700880f5200898f5a008a0f5b009b
:104590008b8f5b00030039001000200001003e00fb
:1045a0000000200007f0a7000000ea004f06be0050
:1045b0004f05be004f04be0000000600e48240002c
:1045c0001078a30007003200640240001178a300b5
:1045d0003400be001401be00040032000330a70006
:1045e000000006003500be001501be000330a0002b
:1045f0000000060005ff2700058261000700320069
:104600000428e10001003200240005000600070034
:1046100001003a00440005000408050002000700fc
:10462000f9ff3a00140005006f82610081027000fa
:10463000850271008502720000000600800078008b
:104640005002be005003be004439de00f700b20045
:10465000f37f200003016100090032000218e1002d
:1046600016003a0085017200830173008381730094
:104670000008200015003a00400020001300370019
:1046800085017200830173008381730005003a0085
:1046900004a8be0006a8be00100020000b003700d2
:1046a0000201e9000402420085824a0006034b0031
:1046b00087834b000748a300f9ff32000740a000a2
:1046c00004a8be0006a8be002000200080009800bc
:0846d0009200980000000600b2
:020000040000fa
:0200000401f009
:04000000e6bf000057
:020000040000fa
:0200000401f009
:04000400ff7f00007a
:020000040000fa
:0200000401f009
:040008007fff000076
:020000040000fa
:0200000401f009
:04001400ffff0000ea
:020000040000fa
:10000800b0010000b0010000b0010000b001000024
:10001800b0010000b0010000b0010000b001000014
:10002800b0010000b0010000b0010000b001000004
:10003800b0010000b00100007a650000b0010000c6
:10004800b0010000806c0000c06b0000d6570000b3
:10005800b0010000b00100008e5e0000b001000099
:10006800b0010000b0010000b0010000b0010000c4
:10007800b0010000b0010000e8680000b001000015
:10008800bc6c0000206c0000b0010000b001000052
:10009800b0010000b0010000b0010000b001000094
:1000a800b0010000b0010000b0010000b001000084
:1000b800b0010000b0010000b0010000b001000074
:1000c800b0010000b0010000b0010000b001000064
:1000d800b0010000b0010000b0010000b001000054
:1000e800b0010000b0010000b0010000b001000044
:0800f800b0010000b00100009e
:020000040000fa
:10010800b0010000b0010000b0010000b001000023
:10011800b0010000b0010000b0010000b001000013
:10012800b0010000b0010000b0010000b001000003
:10013800b0010000b00100007a650000b0010000c5
:10014800b0010000806c0000c06b0000d6570000b2
:10015800b0010000b00100008e5e0000b001000098
:10016800b0010000b0010000b0010000b0010000c3
:10017800b0010000b0010000e8680000b001000014
:10018800bc6c0000206c0000b0010000b001000051
:10019800b0010000b0010000b0010000b001000093
:1001a800b0010000b0010000b0010000b001000083
:1001b800b0010000b0010000b0010000b001000073
:1001c800b0010000b0010000b0010000b001000063
:1001d800b0010000b0010000b0010000b001000053
:1001e800b0010000b0010000b0010000b001000043
:0801f800b0010000b00100009d
:020000040000fa
:1046d8002566000020000000002500006920000079
:1046e80000000000257000002000000000250000e8
:1046f8006c6400002000000000000000256c000031
:0c47080064000000256c0000660000004a
:020000040000fa
:104714000200fa00d4230700671f07000040eb00e3
:10472400b9190700b12407004b210700000f7800d6
:104734001e00e00014003200100020009e0f100044
:1047440005003a003907070010002000809988000e
:10475400760107000c003700200020009e0f100097
:1047640003003a003107070009000700060037007c
:10477400400020009e0f100002003c006b01070067
:10478400010037002c0107000080fa000000060039
:104794000e00fa001100200040002000110f070055
:1047a400d82107006f0507008000eb0040002000bf
:1047b4000c0f07006000b800d0b48800e1b4880092
:1047c4006000b800f0b4880001b588006000b8004b
:1047d40010b5880021b588006000b80030b58800a5
:1047e40041b588006000b80050b5880061b5880004
:1047f4006000b80070b5880081b588006000b8001a
:104804006098880071988800132107003007980089
:1048140011210700800078003e009000808f500036
:10482400fbff3200aa040700411f20008020230060
:10483400ee1f0700813e2000808a2200eb1f070044
:10484400a1002000e0d92200e81f0700d21f0700c2
:104854000000eb00200798000000eb001007980010
:1048640010002000709988000000eb00000f780011
:1048740000003700809880000000e000fdff320057
:104884000000eb0080988800ef0407003097800058
:104894002c030700d0b48800e1b48800409780005e
:1048a40028030700f0b4880001b588005097800001
:1048b4002403070010b5880021b5880060978000a4
:1048c4002003070030b5880041b588008004070044
:1048d400709980000000e0009b003a00ae00900058
:1048e40020032000808f50007d003400f09280006f
:1048f40080004000802521000080400010007800e6
:104904000000e00076003a00009380008000400040
:104914008025210000804000100078000000e000a5
:104924006f003a00f0928000800040008025210052
:1049340000804000100078000000e0000200320017
:1049440045060700cbff370000938000800040003d
:104954008025210000804000100078000000e00065
:10496400020032006c060700c2ff3700f0b480007a
:1049740001b580000041eb00424f9800d2cc2c00de
:10498400c3e423000ef007000000e00001003c0037
:104994000200370010c0b300404f98004e4890000a
:1049a4000004a2000004e0001d003a0010b58000dd
:1049b40021b580000041eb00324f9800d2cc2c008e
:1049c400c3e42300fcef07000000e0000100340012
:1049d4000200370010c0b300304f98003e489000ea
:1049e4000004a2000004e0000d003a001e00900044
:1049f400e60f500004003400170607000000eb0027
:104a0400200798009bff37001e0090000000e8007c
:104a140010079800a06921001405070095ff3700ce
:104a2400f0b4800001b580000041eb00224f9800f3
:104a3400d2cc2c00c3e42300dfef07000000e00029
:104a4400010034000200370010c0b300204f98006a
:104a54002e4890000004a2000004e0001d003a006b
:104a640010b5800021b580000041eb00124f980082
:104a7400d2cc2c00c3e42300d1ef07000000e000f7
:104a840001003c000200370010c0b300104f980032
:104a94001e4890000004a2000004e0000d003a004b
:104aa4001e009000e60f5000040034001a060700b0
:104ab4000000eb00200798006eff37001e009000f6
:104ac4000000e80010079800a0692100e70407002f
:104ad40068ff3700a0692100e404070065ff370080
:104ae400f09280008000400080252100008040007a
:104af400100078000000e00002003200d605070034
:104b04005cff370000938000800040008025210076
:104b140000804000100078000000e0000200320035
:104b2400fd05070053ff3700a0692100cf040700eb
:104b34002e0090000000e800200798000000eb0021
:104b4400100798004bff3700200320009e0f100031
:104b54000c0034000000eb00709988008000eb002a
:104b6400300020001f0e070011002000400020002c
:104b74001c0e07008000eb0050002000190e0700f7
:104b84003cff37001e00e00018003400d0b4800061
:104b9400e1b480000041eb00024f980002002000c5
:104ba40003f0230084ef07000000e000010035005b
:104bb4000200370010c0b300004f98000e48900068
:104bc4000004a2000004e00008003a001e0fe80000
:104bd4001100200050002000020e07008000eb00ae
:104be40030002000ff0d070022ff37001e00e00008
:104bf40020ff3500d0b48000e1b480000200200022
:104c040003f023006eef07000000e00001003c0009
:104c140018ff37001100200030002000f10d0700bc
:104c24008000eb0050002000ee0d07001000200073
:104c3400000f78000fff37000200fa001100200077
:104c440040002000e70d0700ae20070045040700e0
:104c54008000eb0040002000e20d07006000b80077
:104c6400d0b48800e1b488006000b800f0b48800d3
:104c740001b588006000b80010b5880021b588002f
:104c84006000b80030b5880041b588006000b80005
:104c940050b5880061b588006000b80070b5880020
:104ca40081b588006000b800609888007198880019
:104cb40010002000030a070023002000a2002000a7
:104cc400410020000000eb00190a070021f5200034
:104cd4000000eb00350a0700df1f0700000f780013
:104ce400dd1f07009e0f5000fdff32007803070010
:104cf400813e2000808a2200bc1e0700a100200003
:104d0400e0d92200b91e0700a31e070000003700e7
:104d1400809880000000e000fdff32000000eb00fe
:104d24008098880058010700f9ff37000200fa0054
:104d3400742007000b04070065030700110020001e
:104d440040002000a70d0700ac1f0700000f7800eb
:104d540025d3bf000000fb009e0f5000faff3a006d
:104d64008000eb00400020009e0d0700813e2000e3
:104d7400201f23009d1e0700813e2000808a220000
:104d84009a1e0700a1002000e0d92200971e070008
:104d9400811e07000000eb00b09888001100370066
:104da400709980000000e0000d003a0080988000b7
:104db4000000e000fdff32000000eb008098880056
:104dc4000c00070063000700620007009098800051
:104dd400c21d0700a0988000fd1d070001003700d8
:104de4003b030700b09880000000e000ecff3200b5
:104df400d1ff37000e00fa009303070030978000bc
:104e0400d001070002002000a3472400caef0700d6
:104e14000eef07006007980040978000c901070063
:104e240002002000a3472400c3ef070007ef070098
:104e34005007980050978000c2010700020020002c
:104e4400a3472400bcef070000ef070040079800c9
:104e540060978000bb01070002002000a3472400e4
:104e6400b5ef0700f9ee070030079800509780006f
:104e74005802070002002000a3472400aeef0700f9
:104e8400f2ee0700200798004097800051020700c7
:104e940002002000a3472400a7ef0700ebee070061
:104ea400100798000000eb00000f7800a099800024
:104eb4000000e00009003400a1998000b09980004e
:104ec400808f500005003d00a09980000000e8009c
:104ed400a0998800803e2000000f7800fc020700a3
:104ee40029d3bf000000fb00100007006e009000f3
:104ef4000e0007005e0090000c0007004e009000ba
:104f04000a0007003e009000080007002e009000f1
:104f1400060007001e009000040007001e00780031
:104f2400020007000080fa00000006000200fa00f8
:104f3400000f78000e0078002100200031220700c5
:104f44003c2207000000e000fdff3a000080fa0068
:104f5400000006000600fa00281f0700200798003a
:104f640027d3bf008000fb002e009000808f5000ec
:104f74000500320028d3bf008000fb002e00900003
:104f8400808f500010003a001c1f07001007980083
:104f94009e00900080c12f00008f400027d3bf00e7
:104fa4008000fb002e009000808f500003003a0028
:104fb4001e00780090988800620037001e00780078
:104fc400a09888005f00370026d3bf008000fb0054
:104fd4002e009000808f50004f003a00071f0700fa
:104fe400200798001cd3bf008000fb002e00900017
:104ff400008060000000e0000d00320020d3bf00fc
:105004008000fb002e009000008060000000e000a3
:1050140004003200110020000000eb00f10c070036
:10502400030037008000eb000000eb00ed0c0700ec
:105034001dd3bf008000fb002e00900000806000a4
:105044000000e0000d00320021d3bf008000fb000f
:105054002e009000008060000000e0000400320098
:105064001100200010002000de0c070003003700b0
:105074008000eb0010002000da0c07001ed3bf00f4
:105084008000fb002e009000008060000000e00023
:105094000d00320022d3bf008000fb002e009000e0
:1050a400008060000000e0000400320011002000d5
:1050b40020002000cb0c0700030037008000eb0029
:1050c40020002000c70c07001fd3bf008000fb0096
:1050d4002e009000008060000000e0001900320003
:1050e40023d3bf008000fb002e00900000806000ee
:1050f4000000e00004003200110020003000200015
:10510400b80c07000f0037008000eb0030002000cf
:10511400b40c07000b00370024d3bf008000fb0051
:105124002e009000808f500006003a000000eb0033
:10513400909888000000eb00a098880010002000e0
:10514400b09888000080fa00000006000000fa0011
:1051540010002000809888000080fa0000000600fb
:105164000600fa00b802070030978000f500070037
:10517400d0b48800e1b4880040978000f1000700b3
:10518400f0b4880001b5880050978000ed00070056
:1051940010b5880021b5880060978000e9000700f9
:1051a40030b5880041b58800509780008901070018
:1051b40050b5880061b588004097800085010700dc
:1051c40070b5880081b58800a16921000000eb005a
:1051d400a90a070090b58800703e200020079800b7
:1051e4000000eb00100798000c0037001e00900030
:1051f40080004000802521000080400010007800dd
:105204000000e000020032001e0090002007980019
:105214001e0090000000e800100798001e00900097
:10522400e20f5000f1ff3400ae009000703e200009
:10523400808f5000030032002e009000000f780091
:105244000400370090b5800031002000d40207002c
:10525400000f7800a16921001e007800f202070007
:1052640060988000719880000200200003f82300f9
:105274003dec0700609888007198880014020700cc
:105284000080fa00000006000200fa00889fbe00b9
:105294006d02070030978000aa000700d0b4880090
:1052a400e1b4880040978000a6000700f0b48800ad
:1052b40001b5880050978000a200070010b588004f
:1052c40021b58800609780009e00070030b58800f3
:1052d40041b58800509780003e01070050b5880012
:1052e40061b58800409780003a01070070b58800d6
:1052f40081b58800a16921000000eb005e0a070067
:1053040090b5880090b5800031002000a402070009
:10531400000fe800509880009e0f10000200320039
:105324001e007800a10907001e007800509888002c
:1053340050988000a61e070050988000a1692100a3
:105344004d0a070090b58800f0968000cf80de00fb
:10535400d9ed07000004be0090b580001000be0027
:105364000200200003f02300feeb07000001be0052
:105374000800be0070ee07000001be00faeb070053
:1053840091ed070090988800f0968000cf80de00b1
:10539400c9ed07000004be0090b580006400400021
:1053a4001000be000200200003f02300edeb070014
:1053b4000001be000800be005fee07000001be0051
:1053c400e9eb070080ed0700a09888009098800022
:1053d400421c0700a09880007d1c07006098800094
:1053e400719880000200200003f82300deeb070020
:1053f4006098880071988800b50107004f04be00ca
:105404000080fa00000006000000fa00889fbe0039
:105414000d020700309780004a000700d0b48800ce
:10542400e1b488004097800046000700f0b488008b
:1054340001b58800509780004200070010b588002d
:1054440021b58800609780003e00070030b58800d1
:1054540041b5880050978000de00070050b58800f1
:1054640061b5880040978000da00070070b58800b5
:1054740081b58800a16921000000eb00fe09070046
:1054840090b58800f0968000cf80de008aed07009a
:105494000004be0090b580001000be000200200091
:1054a40003f02300afeb07000001be000800be00bc
:1054b40021ee07000001be00abeb070042ed070040
:1054c40090988800f0968000cf80de007aed070087
:1054d4000004be0090b58000640040001000be00cf
:1054e4000200200003f023009eeb07000001be0031
:1054f4000800be0010ee07000001be009aeb070092
:1055040031ed0700a098880090988000f31b0700f5
:10551400a09880002e1c070060988000719880007d
:105524000200200003f823008feb07006098880036
:1055340071988800660107004f04be000080fa00dd
:10554400000006002400fa00889fbe00700f980037
:10555400319780007e089000810f500006003a00c9
:10556400a0b58000b1b5800053ed0700500f98003e
:10557400610f98001d003700419780007e0890005d
:10558400810f500006003a00c0b58000d1b58000fc
:1055940049ed0700500f9800610f98001300370081
:1055a400519780007e089000810f500006003a0059
:1055b400e0b58000f1b580003fed0700500f980082
:1055c400610f980009003700619780007e08900001
:1055d400810f500005003a0000b6800011b680002b
:1055e40035ed0700500f9800610f9800e096800099
:1055f4000000e900c200dd004026210000804000d8
:105604001000be005e099000ee099000eaec07006d
:105614000000e00001003500660037000000eb00e8
:10562400400f98005f0037004e089000c200dd0074
:1056340040262100008040001000be005e0990005a
:10564400ee099000dcec07000000e00001003500ea
:10565400510037004e0890000000e00005003a00b9
:105664000000200001f8230000179800111798008b
:10567400530037004e0890000000e900c200dd002e
:1056840040262100008040001001be00220f980037
:10569400330f98004e089000c200dd004026210020
:1056a400008040001001be00020f9800130f980004
:1056b4000e0990009e0990005e089000ee0890008c
:1056c40028eb07000004be000e0990009e0990001c
:1056d4002e089000be08900022eb07000001be00d7
:1056e4000800be0001ec07006007980071079800ed
:1056f4004e089000c200dd00002a21000080400016
:105704001001be0042079800530798004e0890000d
:105714000000e900c200dd00002a210000804000f2
:105724001001be0022079800330798004e01900034
:10573400de0190002e009000be00900009eb0700ef
:105744006e019000fe0190007bed07004e01900079
:10575400de01900004eb0700008fbe00e09680009d
:105764000000e900c200dd00002a210000804000a2
:105774001001be001e00be00dceb07000001be00ed
:105784000000200001f82300f6ea07000017980043
:10579400111798000a0037004e0890000000e80036
:1057a400400f9800e19680004e089000810f500051
:1057b4009dff35006000b80000179800111798008d
:1057c4000e1090009e1090004f04be000080fa005e
:1057d400000006001600fa00100f980041978000a0
:1057e4001e089000810f50000d003a0040b6800062
:1057f40051b68000b0ec070070079800010f9800c4
:10580400c0978000d19780007e0190008e0990009f
:10581400d4ea070050079800610798001000370089
:10582400519780001e089000810f50000c003a0030
:1058340020b6800031b680009fec07007007980006
:10584400010f9800a0978000b19780007e0190001e
:105854008e099000c3ea070050079800610798007a
:105864006000b8003007980041079800e297800074
:10587400f39780005e009000ee00900050ec07006b
:105884000000e00001003c0007003700d0988000d1
:10589400e10f500004003c000000200001f8230048
:1058a40030079800410798006000b800100798007e
:1058b40021079800419780001e089000810f500036
:1058c40004003a00009880001198800010079800a6
:1058d40021079800519780001e089000810f500006
:1058e40004003a0020988000319880001007980046
:1058f400210798000000eb00000f7800419780001a
:105904001e089000810f500002003a001000200091
:10591400000f78001e00780080004000e02e210077
:105924000080400090007800909780000000e9001b
:10593400808f50001e003d008040eb0041579800ce
:105944006011b8001e009000ae0090001cec07002f
:105954000000e00001003c000200370010c0b3006a
:10596400405798004e5090000004a2000004e0004c
:105974000f003a009e00780001814000e02e2100d3
:1059840000004100100078000001e8008180400020
:10599400e02e210000804000020878000000200072
:1059a40001f8230030079800410798000d003700e4
:1059b4006011b8001e009000ae009000feeb0700de
:1059c4000000e00001003200060037001e007800ed
:1059d40080004000e02e2100808040000000eb00a9
:1059e40080087800419780001e089000810f5000c5
:1059f40004003a003e009000ce0090000098880019
:105a040011988800519780001e089000810f500063
:105a140004003a003e009000ce00900020988800d8
:105a240031988800419780001e089000810f500033
:105a340010003a00d2cc2c00c3dc23003e009000be
:105a4400ce009000deeb07000000e00001003c0007
:105a5400040037001100200030002000610a070014
:105a6400170037008000eb00300020005d0a0700bb
